:020000040000FA
:100000000C9462000C948A000C948A000C948A0070
:100010000C948A000C948A000C948A000C948A0038
:100020000C948A000C948A000C948A000C948A0028
:100030000C948A000C948A000C948A000C948A0018
:100040000C9497020C948A000C9407030C94E10220
:100050000C948A000C948A000C948A000C948A00F8
:100060000C948A000C948A000000000024002700F1
:100070002A0000000000250028002B0000000000DE
:1000800023002600290004040404040404040202DA
:100090000202020203030303030301020408102007
:1000A0004080010204081020010204081020000012
:1000B0000008000201000003040700000000000027
:1000C0000000390311241FBECFEFD8E0DEBFCDBF43
:1000D00011E0A0E0B1E0E6E1FBE002C005900D9286
:1000E000AE36B107D9F722E0AEE6B1E001C01D920D
:1000F000AE32B207E1F710E0C2E6D0E004C02197CB
:10010000FE010E948305C136D107C9F70E94900302
:100110000C9489050C940000833081F028F4813020
:1001200099F08230A9F008958730A9F08830C9F09D
:100130008430B1F4809180008F7D03C08091800075
:100140008F7780938000089584B58F7784BD08955C
:1001500084B58F7DFBCF8091B0008F778093B00006
:1001600008958091B0008F7DF9CFCF93DF93282F32
:1001700030E0F901E255FF4F8491F901E656FF4F57
:10018000D491F901EA57FF4FC491CC23A1F081111A
:100190000E948C00EC2FF0E0EE0FFF1FE458FF4FA1
:1001A000A591B491EC91ED2381E090E009F480E019
:1001B000DF91CF91089580E090E0FACF1F93CF9325
:1001C000DF93282F30E0F901E255FF4F8491F901C8
:1001D000E656FF4FD491F901EA57FF4FC491CC2363
:1001E000A9F0162F81110E948C00EC2FF0E0EE0F89
:1001F000FF1FEE58FF4FA591B4918FB7F894EC9183
:10020000111108C0D095DE23DC938FBFDF91CF9111
:100210001F910895DE2BF8CFCF93DF9390E0FC0180
:10022000E656FF4F24918A579F4FFC018491882303
:10023000C9F090E0880F991FFC01E859FF4FA59184
:10024000B491FC01EE58FF4FC591D49161110DC0DE
:100250009FB7F8948C91209582238C9388812823D2
:1002600028839FBFDF91CF910895623051F49FB7EB
:10027000F8943C91822F809583238C93E8812E2BD8
:10028000EFCF8FB7F894EC912E2B2C938FBFEACF42
:100290003FB7F8948091730190917401A09175011A
:1002A000B091760126B5A89B05C02F3F19F00196A5
:1002B000A11DB11D3FBFBA2FA92F982F8827BC01C0
:1002C000CD01620F711D811D911D42E0660F771FE8
:1002D000881F991F4A95D1F70895AF92BF92CF9288
:1002E000DF92EF92FF920F931F93CF93DF936C01F6
:1002F0007B018B01040F151FEB015E01AE18BF08D7
:10030000C017D10759F06991D601ED91FC91019088
:10031000F081E02DC6010995892B79F7C501DF91A0
:10032000CF911F910F91FF90EF90DF90CF90BF90F2
:10033000AF900895FC01538D448D252F30E0842F1C
:1003400090E0821B930B541710F0CF9608950197FD
:100350000895FC01918D828D981761F0A28DAE0FEA
:10036000BF2FB11D5D968C91928D9F5F9F73928F71
:1003700090E008958FEF9FEF0895FC01918D828D9D
:10038000981731F0828DE80FF11D858D90E008956A
:100390008FEF9FEF0895FC01918D228D892F90E0C2
:1003A000805C9F4F821B91098F739927089587E77F
:1003B00091E00E94CB0121E0892B09F420E0822FFB
:1003C000089580E090E0892B29F00E94D7018111E7
:1003D0000C9400000895FC01A48DA80FB92FB11D45
:1003E000A35ABF4F2C91848D90E001968F7399276B
:1003F000848FA689B7892C93A089B1898C91837049
:1004000080648C93938D848D981306C00288F38941
:10041000E02D80818F7D80830895EF92FF920F936E
:100420001F93CF93DF93EC0181E0888F9B8D8C8DA0
:1004300098131AC0E889F989808185FF15C09FB794
:10044000F894EE89FF896083E889F9898081837057
:10045000806480839FBF81E090E0DF91CF911F9106
:100460000F91FF90EF900895F62E0B8D10E00F5F27
:100470001F4F0F731127E02E8C8D8E110CC00FB6FD
:1004800007FCFACFE889F989808185FFF5CFCE0195
:100490000E94EB01F1CFEB8DEC0FFD2FF11DE35A24
:1004A000FF4FF0829FB7F8940B8FEA89FB89808118
:1004B0008062CFCFCF93DF93EC01888D8823B9F092
:1004C000AA89BB89E889F9898C9185FD03C080815F
:1004D00086FD0DC00FB607FCF7CF8C9185FFF2CFDC
:1004E000808185FFEDCFCE010E94EB01E9CFDF9146
:1004F000CF910895CF93DF93FC0101900020E9F79D
:100500003197AF01481B590BBC0187E791E00E946E
:100510006D01EC0142E050E068E171E087E791E0B5
:100520000E946D018C0F9D1FDF91CF9108951F9246
:100530000F920FB60F9211242F933F938F939F9397
:10054000AF93BF9380916F0190917001A091710161
:10055000B091720130916E0123E0230F2D3758F5D1
:100560000196A11DB11D20936E0180936F019093A0
:100570007001A0937101B093720180917301909109
:100580007401A0917501B09176010196A11DB11D74
:100590008093730190937401A0937501B0937601D9
:1005A000BF91AF919F918F913F912F910F900FBE6F
:1005B0000F901F90189526E8230F0296A11DB11DDC
:1005C000D2CF1F920F920FB60F9211242F933F9309
:1005D0004F935F936F937F938F939F93AF93BF934B
:1005E000EF93FF9387E791E00E94EB01FF91EF917A
:1005F000BF91AF919F918F917F916F915F914F913B
:100600003F912F910F900FBE0F901F9018951F9242
:100610000F920FB60F9211242F938F939F93EF9306
:10062000FF93E0918701F09188018081E0918D0135
:10063000F0918E0182FD1BC09081809190018F5FAF
:100640008F7320919101821741F0E0919001F0E0C9
:10065000E958FE4F958F80939001FF91EF919F9104
:100660008F912F910F900FBE0F901F901895808142
:10067000F4CFCF93DF93E7E7F1E01382128288EEA5
:1006800093E0A0E0B0E084839583A683B7838AE0FB
:1006900091E09183808385EC90E09587848784EC5A
:1006A00090E09787868780EC90E0918B808B81EC3F
:1006B00090E0938B828B82EC90E0958B848B86EC20
:1006C00090E0978B868B118E128E138E148EC4E160
:1006D000D2E082E090E0998388831A821B821C8298
:1006E0001D821E821F82188619861B861A8662E06A
:1006F0000E940C011D861C8681E090E09F878E87FA
:1007000088810E94B500998B888B9B8B8A8B9D8BEF
:100710008C8B1E8A1F8A188E198EDF91CF910895B7
:10072000789484B5826084BD84B5816084BD85B5CC
:10073000826085BD85B5816085BD80916E008160D8
:1007400080936E001092810080918100826080937E
:100750008100809181008160809381008091800080
:100760008160809380008091B10084608093B100AB
:100770008091B00081608093B00080917A008460A5
:1007800080937A0080917A00826080937A008091D1
:100790007A00816080937A0080917A0080688093EB
:1007A0007A001092C10062E082E00E940C0182E3B4
:1007B00090E0A0E0B0E08093160290931702A0931F
:1007C0001802B093190210921F0210921E0261E0EB
:1007D00085E00E940C0161E086E00E940C0161E06E
:1007E00087E00E940C0160E087E00E94DE0061E08B
:1007F00086E00E940C0160E086E00E94DE00E0914D
:100800008701F091880182E08083E0918301F0917B
:1008100084011082E0918501F091860180E180835E
:1008200010928F01E0918B01F0918C0186E0808322
:10083000E0918901F0918A01808180618083E0915B
:100840008901F0918A01808188608083E09189012B
:10085000F0918A01808180688083E0918901F09124
:100860008A0180818F7D80838BE191E00E947A02F2
:1008700094EBE92E90E0F92E00E010E08091140254
:100880000E94B5002FB7F89440916F01509170010C
:1008900060917101709172012FBF209128023091F7
:1008A00029028217930761F040932A0250932B028A
:1008B00060932C0270932D0290932902809328025A
:1008C00080902A0290902B02A0902C02B0902D02D2
:1008D000481959096A097B098090160290901702FD
:1008E000A0901802B0901902481559056A057B05B9
:1008F00060F0209126023091270230932502209348
:100900002402909327028093260240912402509162
:10091000250220912602309127024217530721F128
:1009200080911A0290911B02A0911C02B0911D02AD
:1009300060911E0270911F026230710561F4019690
:10094000A11DB11D80931A0290931B02A0931C025B
:10095000B0931D0209C06115710509F06EC04130E8
:10096000510511F4232B59F3C0911A02D0911B02A7
:10097000C430D10554F010921A0210921B0210924A
:100980001C0210921D02D0E0C0E080910001909105
:1009900001018C179D0709F1FE01EE5FFE4FB0804B
:1009A000CB2CD12C61E086E00E940C01C114D10453
:1009B00009F04FC060E086E00E94DE00C130D10542
:1009C00009F49BC00CF08DC085E491E0209709F4F8
:1009D00091C0D0930101C09300010E9448014B01D6
:1009E0005C018AE0482E512C612C712C0E94480138
:1009F000681979098A099B09683E73408105910548
:100A0000A8F321E0421A51086108710888EE880EA7
:100A100083E0981EA11CB11C4114510461047104AF
:100A200029F70115110509F429CF0E94D701882360
:100A300009F424CF0E94000021CF6130710509F034
:100A400093CF452B09F090CF2130310509F08CCFA1
:100A500076CF2FEFC216D10411F461E0ACCFF701CD
:100A60008491833021F148F48130B9F08230D1F0A3
:100A7000F0E8CF16D1048CF79DCF873011F1883084
:100A800041F18430A9F780918000806280938000DA
:100A9000D0928B00C0928A0091CF84B5806884BDCB
:100AA000B7BC8CCF84B5806284BDB8BC87CF809141
:100AB0008000806880938000D0928900C092880076
:100AC0007DCF8091B00080688093B000B092B30079
:100AD00075CF8091B00080628093B000B092B40076
:100AE0006DCFC230D10561F083E691E0C330D1050E
:100AF00009F06FCF0E947A026CCF8EE491E0FACFBA
:100B000087E591E0F7CFEE0FFF1F0590F491E02D00
:100B10000994F894FFCFFFFF0055AAFF00000000E2
:100B20000D026D019A015A02CB01A901BD010D0A06
:100B3000004C3239384E2046616E20636F6E7472FD
:100B40006F6C6C65722028454E41206A756D70652A
:100B5000722070726573656E74290046616E3A206A
:100B60004F46460046616E3A204C4F570046616E34
:100B70003A204D454449554D0046616E3A2048495A
:040B800047480000E2
:107E0000112484B714BE81FFF0D085E080938100F7
:107E100082E08093C00088E18093C10086E0809377
:107E2000C20080E18093C4008EE0C9D0259A86E02C
:107E300020E33CEF91E0309385002093840096BBD3
:107E4000B09BFECF1D9AA8958150A9F7CC24DD24C4
:107E500088248394B5E0AB2EA1E19A2EF3E0BF2EE7
:107E6000A2D0813461F49FD0082FAFD0023811F036
:107E7000013811F484E001C083E08DD089C08234E0
:107E800011F484E103C0853419F485E0A6D080C0E4
:107E9000853579F488D0E82EFF2485D0082F10E0AE
:107EA000102F00270E291F29000F111F8ED06801E7
:107EB0006FC0863521F484E090D080E0DECF843638
:107EC00009F040C070D06FD0082F6DD080E0C81688
:107ED00080E7D80618F4F601B7BEE895C0E0D1E017
:107EE00062D089930C17E1F7F0E0CF16F0E7DF06D8
:107EF00018F0F601B7BEE89568D007B600FCFDCFD4
:107F0000A601A0E0B1E02C9130E011968C91119780
:107F100090E0982F8827822B932B1296FA010C0160
:107F200087BEE89511244E5F5F4FF1E0A038BF0790
:107F300051F7F601A7BEE89507B600FCFDCF97BE46
:107F4000E89526C08437B1F42ED02DD0F82E2BD052
:107F50003CD0F601EF2C8F010F5F1F4F84911BD097
:107F6000EA94F801C1F70894C11CD11CFA94CF0C13
:107F7000D11C0EC0853739F428D08EE10CD085E9AC
:107F80000AD08FE07ACF813511F488E018D01DD067
:107F900080E101D065CF982F8091C00085FFFCCF94
:107FA0009093C60008958091C00087FFFCCF809118
:107FB000C00084FD01C0A8958091C6000895E0E648
:107FC000F0E098E1908380830895EDDF803219F02E
:107FD00088E0F5DFFFCF84E1DECF1F93182FE3DFCA
:107FE0001150E9F7F2DF1F91089580E0E8DFEE27F6
:047FF000FF270994CA
:027FFE00040479
:00000001FF
